{
	"contracts/7_ThreeAndSeven.sol": {
		"ThreeandSeven": {
			"abi": [
				{
					"inputs": [
						{
							"internalType": "int256",
							"name": "num",
							"type": "int256"
						}
					],
					"name": "check",
					"outputs": [
						{
							"internalType": "bool",
							"name": "",
							"type": "bool"
						}
					],
					"stateMutability": "pure",
					"type": "function"
				}
			],
			"devdoc": {
				"kind": "dev",
				"methods": {},
				"version": 1
			},
			"evm": {
				"assembly": "    /* \"contracts/7_ThreeAndSeven.sol\":60:259  contract ThreeandSeven {... */\n  mstore(0x40, 0x80)\n  callvalue\n  dup1\n  iszero\n  tag_1\n  jumpi\n  0x00\n  dup1\n  revert\ntag_1:\n  pop\n  dataSize(sub_0)\n  dup1\n  dataOffset(sub_0)\n  0x00\n  codecopy\n  0x00\n  return\nstop\n\nsub_0: assembly {\n        /* \"contracts/7_ThreeAndSeven.sol\":60:259  contract ThreeandSeven {... */\n      mstore(0x40, 0x80)\n      callvalue\n      dup1\n      iszero\n      tag_1\n      jumpi\n      0x00\n      dup1\n      revert\n    tag_1:\n      pop\n      jumpi(tag_2, lt(calldatasize, 0x04))\n      shr(0xe0, calldataload(0x00))\n      dup1\n      0x9943d669\n      eq\n      tag_3\n      jumpi\n    tag_2:\n      0x00\n      dup1\n      revert\n        /* \"contracts/7_ThreeAndSeven.sol\":90:256  function check(int num) public  pure returns (bool){... */\n    tag_3:\n      tag_4\n      0x04\n      dup1\n      calldatasize\n      sub\n      dup2\n      add\n      swap1\n      tag_5\n      swap2\n      swap1\n      tag_6\n      jump\t// in\n    tag_5:\n      tag_7\n      jump\t// in\n    tag_4:\n      mload(0x40)\n      tag_8\n      swap2\n      swap1\n      tag_9\n      jump\t// in\n    tag_8:\n      mload(0x40)\n      dup1\n      swap2\n      sub\n      swap1\n      return\n    tag_7:\n        /* \"contracts/7_ThreeAndSeven.sol\":136:140  bool */\n      0x00\n        /* \"contracts/7_ThreeAndSeven.sol\":168:169  0 */\n      dup1\n        /* \"contracts/7_ThreeAndSeven.sol\":163:164  3 */\n      0x03\n        /* \"contracts/7_ThreeAndSeven.sol\":157:160  num */\n      dup4\n        /* \"contracts/7_ThreeAndSeven.sol\":157:164  num % 3 */\n      tag_11\n      swap2\n      swap1\n      tag_12\n      jump\t// in\n    tag_11:\n        /* \"contracts/7_ThreeAndSeven.sol\":157:169  num % 3 == 0 */\n      eq\n        /* \"contracts/7_ThreeAndSeven.sol\":157:185  num % 3 == 0 || num % 7 == 0 */\n      dup1\n      tag_13\n      jumpi\n      pop\n        /* \"contracts/7_ThreeAndSeven.sol\":184:185  0 */\n      0x00\n        /* \"contracts/7_ThreeAndSeven.sol\":179:180  7 */\n      0x07\n        /* \"contracts/7_ThreeAndSeven.sol\":173:176  num */\n      dup4\n        /* \"contracts/7_ThreeAndSeven.sol\":173:180  num % 7 */\n      tag_14\n      swap2\n      swap1\n      tag_12\n      jump\t// in\n    tag_14:\n        /* \"contracts/7_ThreeAndSeven.sol\":173:185  num % 7 == 0 */\n      eq\n        /* \"contracts/7_ThreeAndSeven.sol\":157:185  num % 3 == 0 || num % 7 == 0 */\n    tag_13:\n        /* \"contracts/7_ThreeAndSeven.sol\":156:198  (num % 3 == 0 || num % 7 == 0) && num > 10 */\n      dup1\n      iszero\n      tag_15\n      jumpi\n      pop\n        /* \"contracts/7_ThreeAndSeven.sol\":196:198  10 */\n      0x0a\n        /* \"contracts/7_ThreeAndSeven.sol\":190:193  num */\n      dup3\n        /* \"contracts/7_ThreeAndSeven.sol\":190:198  num > 10 */\n      sgt\n        /* \"contracts/7_ThreeAndSeven.sol\":156:198  (num % 3 == 0 || num % 7 == 0) && num > 10 */\n    tag_15:\n        /* \"contracts/7_ThreeAndSeven.sol\":152:224  if ((num % 3 == 0 || num % 7 == 0) && num > 10)... */\n      iszero\n      tag_16\n      jumpi\n        /* \"contracts/7_ThreeAndSeven.sol\":220:224  true */\n      0x01\n        /* \"contracts/7_ThreeAndSeven.sol\":213:224  return true */\n      swap1\n      pop\n      jump(tag_10)\n        /* \"contracts/7_ThreeAndSeven.sol\":152:224  if ((num % 3 == 0 || num % 7 == 0) && num > 10)... */\n    tag_16:\n        /* \"contracts/7_ThreeAndSeven.sol\":242:247  false */\n      0x00\n        /* \"contracts/7_ThreeAndSeven.sol\":235:247  return false */\n      swap1\n      pop\n        /* \"contracts/7_ThreeAndSeven.sol\":90:256  function check(int num) public  pure returns (bool){... */\n    tag_10:\n      swap2\n      swap1\n      pop\n      jump\t// out\n        /* \"#utility.yul\":88:205   */\n    tag_18:\n        /* \"#utility.yul\":197:198   */\n      0x00\n        /* \"#utility.yul\":194:195   */\n      dup1\n        /* \"#utility.yul\":187:199   */\n      revert\n        /* \"#utility.yul\":334:410   */\n    tag_20:\n        /* \"#utility.yul\":370:377   */\n      0x00\n        /* \"#utility.yul\":399:404   */\n      dup2\n        /* \"#utility.yul\":388:404   */\n      swap1\n      pop\n        /* \"#utility.yul\":334:410   */\n      swap2\n      swap1\n      pop\n      jump\t// out\n        /* \"#utility.yul\":416:536   */\n    tag_21:\n        /* \"#utility.yul\":488:511   */\n      tag_32\n        /* \"#utility.yul\":505:510   */\n      dup2\n        /* \"#utility.yul\":488:511   */\n      tag_20\n      jump\t// in\n    tag_32:\n        /* \"#utility.yul\":481:486   */\n      dup2\n        /* \"#utility.yul\":478:512   */\n      eq\n        /* \"#utility.yul\":468:530   */\n      tag_33\n      jumpi\n        /* \"#utility.yul\":526:527   */\n      0x00\n        /* \"#utility.yul\":523:524   */\n      dup1\n        /* \"#utility.yul\":516:528   */\n      revert\n        /* \"#utility.yul\":468:530   */\n    tag_33:\n        /* \"#utility.yul\":416:536   */\n      pop\n      jump\t// out\n        /* \"#utility.yul\":542:679   */\n    tag_22:\n        /* \"#utility.yul\":587:592   */\n      0x00\n        /* \"#utility.yul\":625:631   */\n      dup2\n        /* \"#utility.yul\":612:632   */\n      calldataload\n        /* \"#utility.yul\":603:632   */\n      swap1\n      pop\n        /* \"#utility.yul\":641:673   */\n      tag_35\n        /* \"#utility.yul\":667:672   */\n      dup2\n        /* \"#utility.yul\":641:673   */\n      tag_21\n      jump\t// in\n    tag_35:\n        /* \"#utility.yul\":542:679   */\n      swap3\n      swap2\n      pop\n      pop\n      jump\t// out\n        /* \"#utility.yul\":685:1012   */\n    tag_6:\n        /* \"#utility.yul\":743:749   */\n      0x00\n        /* \"#utility.yul\":792:794   */\n      0x20\n        /* \"#utility.yul\":780:789   */\n      dup3\n        /* \"#utility.yul\":771:778   */\n      dup5\n        /* \"#utility.yul\":767:790   */\n      sub\n        /* \"#utility.yul\":763:795   */\n      slt\n        /* \"#utility.yul\":760:879   */\n      iszero\n      tag_37\n      jumpi\n        /* \"#utility.yul\":798:877   */\n      tag_38\n      tag_18\n      jump\t// in\n    tag_38:\n        /* \"#utility.yul\":760:879   */\n    tag_37:\n        /* \"#utility.yul\":918:919   */\n      0x00\n        /* \"#utility.yul\":943:995   */\n      tag_39\n        /* \"#utility.yul\":987:994   */\n      dup5\n        /* \"#utility.yul\":978:984   */\n      dup3\n        /* \"#utility.yul\":967:976   */\n      dup6\n        /* \"#utility.yul\":963:985   */\n      add\n        /* \"#utility.yul\":943:995   */\n      tag_22\n      jump\t// in\n    tag_39:\n        /* \"#utility.yul\":933:995   */\n      swap2\n      pop\n        /* \"#utility.yul\":889:1005   */\n      pop\n        /* \"#utility.yul\":685:1012   */\n      swap3\n      swap2\n      pop\n      pop\n      jump\t// out\n        /* \"#utility.yul\":1018:1108   */\n    tag_23:\n        /* \"#utility.yul\":1052:1059   */\n      0x00\n        /* \"#utility.yul\":1095:1100   */\n      dup2\n        /* \"#utility.yul\":1088:1101   */\n      iszero\n        /* \"#utility.yul\":1081:1102   */\n      iszero\n        /* \"#utility.yul\":1070:1102   */\n      swap1\n      pop\n        /* \"#utility.yul\":1018:1108   */\n      swap2\n      swap1\n      pop\n      jump\t// out\n        /* \"#utility.yul\":1114:1223   */\n    tag_24:\n        /* \"#utility.yul\":1195:1216   */\n      tag_42\n        /* \"#utility.yul\":1210:1215   */\n      dup2\n        /* \"#utility.yul\":1195:1216   */\n      tag_23\n      jump\t// in\n    tag_42:\n        /* \"#utility.yul\":1190:1193   */\n      dup3\n        /* \"#utility.yul\":1183:1217   */\n      mstore\n        /* \"#utility.yul\":1114:1223   */\n      pop\n      pop\n      jump\t// out\n        /* \"#utility.yul\":1229:1439   */\n    tag_9:\n        /* \"#utility.yul\":1316:1320   */\n      0x00\n        /* \"#utility.yul\":1354:1356   */\n      0x20\n        /* \"#utility.yul\":1343:1352   */\n      dup3\n        /* \"#utility.yul\":1339:1357   */\n      add\n        /* \"#utility.yul\":1331:1357   */\n      swap1\n      pop\n        /* \"#utility.yul\":1367:1432   */\n      tag_44\n        /* \"#utility.yul\":1429:1430   */\n      0x00\n        /* \"#utility.yul\":1418:1427   */\n      dup4\n        /* \"#utility.yul\":1414:1431   */\n      add\n        /* \"#utility.yul\":1405:1411   */\n      dup5\n        /* \"#utility.yul\":1367:1432   */\n      tag_24\n      jump\t// in\n    tag_44:\n        /* \"#utility.yul\":1229:1439   */\n      swap3\n      swap2\n      pop\n      pop\n      jump\t// out\n        /* \"#utility.yul\":1445:1625   */\n    tag_25:\n        /* \"#utility.yul\":1493:1570   */\n      0x4e487b7100000000000000000000000000000000000000000000000000000000\n        /* \"#utility.yul\":1490:1491   */\n      0x00\n        /* \"#utility.yul\":1483:1571   */\n      mstore\n        /* \"#utility.yul\":1590:1594   */\n      0x12\n        /* \"#utility.yul\":1587:1588   */\n      0x04\n        /* \"#utility.yul\":1580:1595   */\n      mstore\n        /* \"#utility.yul\":1614:1618   */\n      0x24\n        /* \"#utility.yul\":1611:1612   */\n      0x00\n        /* \"#utility.yul\":1604:1619   */\n      revert\n        /* \"#utility.yul\":1631:1805   */\n    tag_12:\n        /* \"#utility.yul\":1662:1663   */\n      0x00\n        /* \"#utility.yul\":1679:1698   */\n      tag_47\n        /* \"#utility.yul\":1696:1697   */\n      dup3\n        /* \"#utility.yul\":1679:1698   */\n      tag_20\n      jump\t// in\n    tag_47:\n        /* \"#utility.yul\":1674:1698   */\n      swap2\n      pop\n        /* \"#utility.yul\":1712:1731   */\n      tag_48\n        /* \"#utility.yul\":1729:1730   */\n      dup4\n        /* \"#utility.yul\":1712:1731   */\n      tag_20\n      jump\t// in\n    tag_48:\n        /* \"#utility.yul\":1707:1731   */\n      swap3\n      pop\n        /* \"#utility.yul\":1750:1751   */\n      dup3\n        /* \"#utility.yul\":1740:1775   */\n      tag_49\n      jumpi\n        /* \"#utility.yul\":1755:1773   */\n      tag_50\n      tag_25\n      jump\t// in\n    tag_50:\n        /* \"#utility.yul\":1740:1775   */\n    tag_49:\n        /* \"#utility.yul\":1797:1798   */\n      dup3\n        /* \"#utility.yul\":1794:1795   */\n      dup3\n        /* \"#utility.yul\":1789:1799   */\n      smod\n        /* \"#utility.yul\":1784:1799   */\n      swap1\n      pop\n        /* \"#utility.yul\":1631:1805   */\n      swap3\n      swap2\n      pop\n      pop\n      jump\t// out\n\n    auxdata: 0xa2646970667358221220e3bc6242abeb418e6059667df82c8950e893b54fa7c78665696869a9a249b09364736f6c63430008190033\n}\n",
				"bytecode": {
					"linkReferences": {},
					"object": "6080604052348015600e575f80fd5b506101ce8061001c5f395ff3fe608060405234801561000f575f80fd5b5060043610610029575f3560e01c80639943d6691461002d575b5f80fd5b610047600480360381019061004291906100dd565b61005d565b6040516100549190610122565b60405180910390f35b5f8060038361006c9190610168565b148061008357505f6007836100819190610168565b145b801561008f5750600a82135b1561009d57600190506100a1565b5f90505b919050565b5f80fd5b5f819050919050565b6100bc816100aa565b81146100c6575f80fd5b50565b5f813590506100d7816100b3565b92915050565b5f602082840312156100f2576100f16100a6565b5b5f6100ff848285016100c9565b91505092915050565b5f8115159050919050565b61011c81610108565b82525050565b5f6020820190506101355f830184610113565b92915050565b7f4e487b71000000000000000000000000000000000000000000000000000000005f52601260045260245ffd5b5f610172826100aa565b915061017d836100aa565b92508261018d5761018c61013b565b5b82820790509291505056fea2646970667358221220e3bc6242abeb418e6059667df82c8950e893b54fa7c78665696869a9a249b09364736f6c63430008190033",
					"opcodes": "PUSH1 0x80 PUSH1 0x40 MSTORE CALLVALUE DUP1 ISZERO PUSH1 0xE JUMPI PUSH0 DUP1 REVERT JUMPDEST POP PUSH2 0x1CE DUP1 PUSH2 0x1C PUSH0 CODECOPY PUSH0 RETURN INVALID PUSH1 0x80 PUSH1 0x40 MSTORE CALLVALUE DUP1 ISZERO PUSH2 0xF JUMPI PUSH0 DUP1 REVERT JUMPDEST POP PUSH1 0x4 CALLDATASIZE LT PUSH2 0x29 JUMPI PUSH0 CALLDATALOAD PUSH1 0xE0 SHR DUP1 PUSH4 0x9943D669 EQ PUSH2 0x2D JUMPI JUMPDEST PUSH0 DUP1 REVERT JUMPDEST PUSH2 0x47 PUSH1 0x4 DUP1 CALLDATASIZE SUB DUP2 ADD SWAP1 PUSH2 0x42 SWAP2 SWAP1 PUSH2 0xDD JUMP JUMPDEST PUSH2 0x5D JUMP JUMPDEST PUSH1 0x40 MLOAD PUSH2 0x54 SWAP2 SWAP1 PUSH2 0x122 JUMP JUMPDEST PUSH1 0x40 MLOAD DUP1 SWAP2 SUB SWAP1 RETURN JUMPDEST PUSH0 DUP1 PUSH1 0x3 DUP4 PUSH2 0x6C SWAP2 SWAP1 PUSH2 0x168 JUMP JUMPDEST EQ DUP1 PUSH2 0x83 JUMPI POP PUSH0 PUSH1 0x7 DUP4 PUSH2 0x81 SWAP2 SWAP1 PUSH2 0x168 JUMP JUMPDEST EQ JUMPDEST DUP1 ISZERO PUSH2 0x8F JUMPI POP PUSH1 0xA DUP3 SGT JUMPDEST ISZERO PUSH2 0x9D JUMPI PUSH1 0x1 SWAP1 POP PUSH2 0xA1 JUMP JUMPDEST PUSH0 SWAP1 POP JUMPDEST SWAP2 SWAP1 POP JUMP JUMPDEST PUSH0 DUP1 REVERT JUMPDEST PUSH0 DUP2 SWAP1 POP SWAP2 SWAP1 POP JUMP JUMPDEST PUSH2 0xBC DUP2 PUSH2 0xAA JUMP JUMPDEST DUP2 EQ PUSH2 0xC6 JUMPI PUSH0 DUP1 REVERT JUMPDEST POP JUMP JUMPDEST PUSH0 DUP2 CALLDATALOAD SWAP1 POP PUSH2 0xD7 DUP2 PUSH2 0xB3 JUMP JUMPDEST SWAP3 SWAP2 POP POP JUMP JUMPDEST PUSH0 PUSH1 0x20 DUP3 DUP5 SUB SLT ISZERO PUSH2 0xF2 JUMPI PUSH2 0xF1 PUSH2 0xA6 JUMP JUMPDEST JUMPDEST PUSH0 PUSH2 0xFF DUP5 DUP3 DUP6 ADD PUSH2 0xC9 JUMP JUMPDEST SWAP2 POP POP SWAP3 SWAP2 POP POP JUMP JUMPDEST PUSH0 DUP2 ISZERO ISZERO SWAP1 POP SWAP2 SWAP1 POP JUMP JUMPDEST PUSH2 0x11C DUP2 PUSH2 0x108 JUMP JUMPDEST DUP3 MSTORE POP POP JUMP JUMPDEST PUSH0 PUSH1 0x20 DUP3 ADD SWAP1 POP PUSH2 0x135 PUSH0 DUP4 ADD DUP5 PUSH2 0x113 JUMP JUMPDEST SWAP3 SWAP2 POP POP JUMP JUMPDEST PUSH32 0x4E487B7100000000000000000000000000000000000000000000000000000000 PUSH0 MSTORE PUSH1 0x12 PUSH1 0x4 MSTORE PUSH1 0x24 PUSH0 REVERT JUMPDEST PUSH0 PUSH2 0x172 DUP3 PUSH2 0xAA JUMP JUMPDEST SWAP2 POP PUSH2 0x17D DUP4 PUSH2 0xAA JUMP JUMPDEST SWAP3 POP DUP3 PUSH2 0x18D JUMPI PUSH2 0x18C PUSH2 0x13B JUMP JUMPDEST JUMPDEST DUP3 DUP3 SMOD SWAP1 POP SWAP3 SWAP2 POP POP JUMP INVALID LOG2 PUSH5 0x6970667358 0x22 SLT KECCAK256 0xE3 0xBC PUSH3 0x42ABEB COINBASE DUP15 PUSH1 0x59 PUSH7 0x7DF82C8950E893 0xB5 0x4F 0xA7 0xC7 DUP7 PUSH6 0x696869A9A249 0xB0 SWAP4 PUSH5 0x736F6C6343 STOP ADDMOD NOT STOP CALLER "
				},
				"gasEstimates": {
					"creation": {
						"codeDepositCost": "92400",
						"executionCost": "139",
						"totalCost": "92539"
					},
					"external": {
						"check(int256)": "infinite"
					}
				},
				"methodIdentifiers": {
					"check(int256)": "9943d669"
				}
			},
			"storageLayout": {
				"storage": [],
				"types": null
			},
			"userdoc": {
				"kind": "user",
				"methods": {},
				"version": 1
			}
		}
	}
}