{
	"contracts/8_PrimeNumber.sol": {
		"primeNum": {
			"abi": [
				{
					"inputs": [
						{
							"internalType": "int256",
							"name": "num",
							"type": "int256"
						}
					],
					"name": "ifPrime",
					"outputs": [
						{
							"internalType": "bool",
							"name": "",
							"type": "bool"
						}
					],
					"stateMutability": "pure",
					"type": "function"
				}
			],
			"devdoc": {
				"kind": "dev",
				"methods": {},
				"version": 1
			},
			"evm": {
				"assembly": "    /* \"contracts/8_PrimeNumber.sol\":60:319  contract primeNum {... */\n  mstore(0x40, 0x80)\n  callvalue\n  dup1\n  iszero\n  tag_1\n  jumpi\n  0x00\n  dup1\n  revert\ntag_1:\n  pop\n  dataSize(sub_0)\n  dup1\n  dataOffset(sub_0)\n  0x00\n  codecopy\n  0x00\n  return\nstop\n\nsub_0: assembly {\n        /* \"contracts/8_PrimeNumber.sol\":60:319  contract primeNum {... */\n      mstore(0x40, 0x80)\n      callvalue\n      dup1\n      iszero\n      tag_1\n      jumpi\n      0x00\n      dup1\n      revert\n    tag_1:\n      pop\n      jumpi(tag_2, lt(calldatasize, 0x04))\n      shr(0xe0, calldataload(0x00))\n      dup1\n      0x47b78e4a\n      eq\n      tag_3\n      jumpi\n    tag_2:\n      0x00\n      dup1\n      revert\n        /* \"contracts/8_PrimeNumber.sol\":85:316  function ifPrime(int num) public pure returns (bool) {... */\n    tag_3:\n      tag_4\n      0x04\n      dup1\n      calldatasize\n      sub\n      dup2\n      add\n      swap1\n      tag_5\n      swap2\n      swap1\n      tag_6\n      jump\t// in\n    tag_5:\n      tag_7\n      jump\t// in\n    tag_4:\n      mload(0x40)\n      tag_8\n      swap2\n      swap1\n      tag_9\n      jump\t// in\n    tag_8:\n      mload(0x40)\n      dup1\n      swap2\n      sub\n      swap1\n      return\n    tag_7:\n        /* \"contracts/8_PrimeNumber.sol\":132:136  bool */\n      0x00\n        /* \"contracts/8_PrimeNumber.sol\":160:161  1 */\n      0x01\n        /* \"contracts/8_PrimeNumber.sol\":153:156  num */\n      dup3\n        /* \"contracts/8_PrimeNumber.sol\":153:161  num == 1 */\n      sub\n        /* \"contracts/8_PrimeNumber.sol\":149:175  if (num == 1) return false */\n      tag_11\n      jumpi\n        /* \"contracts/8_PrimeNumber.sol\":170:175  false */\n      0x00\n        /* \"contracts/8_PrimeNumber.sol\":163:175  return false */\n      swap1\n      pop\n      jump(tag_10)\n        /* \"contracts/8_PrimeNumber.sol\":149:175  if (num == 1) return false */\n    tag_11:\n        /* \"contracts/8_PrimeNumber.sol\":190:195  int i */\n      0x00\n        /* \"contracts/8_PrimeNumber.sol\":198:199  2 */\n      0x02\n        /* \"contracts/8_PrimeNumber.sol\":190:199  int i = 2 */\n      swap1\n      pop\n        /* \"contracts/8_PrimeNumber.sol\":186:287  for(int i = 2; i < num; i++){... */\n    tag_12:\n        /* \"contracts/8_PrimeNumber.sol\":205:208  num */\n      dup3\n        /* \"contracts/8_PrimeNumber.sol\":201:202  i */\n      dup2\n        /* \"contracts/8_PrimeNumber.sol\":201:208  i < num */\n      slt\n        /* \"contracts/8_PrimeNumber.sol\":186:287  for(int i = 2; i < num; i++){... */\n      iszero\n      tag_13\n      jumpi\n        /* \"contracts/8_PrimeNumber.sol\":243:244  0 */\n      0x00\n        /* \"contracts/8_PrimeNumber.sol\":238:239  i */\n      dup2\n        /* \"contracts/8_PrimeNumber.sol\":232:235  num */\n      dup5\n        /* \"contracts/8_PrimeNumber.sol\":232:239  num % i */\n      tag_15\n      swap2\n      swap1\n      tag_16\n      jump\t// in\n    tag_15:\n        /* \"contracts/8_PrimeNumber.sol\":232:244  num % i == 0 */\n      sub\n        /* \"contracts/8_PrimeNumber.sol\":229:275  if(num % i == 0)... */\n      tag_17\n      jumpi\n        /* \"contracts/8_PrimeNumber.sol\":270:275  false */\n      0x00\n        /* \"contracts/8_PrimeNumber.sol\":263:275  return false */\n      swap2\n      pop\n      pop\n      jump(tag_10)\n        /* \"contracts/8_PrimeNumber.sol\":229:275  if(num % i == 0)... */\n    tag_17:\n        /* \"contracts/8_PrimeNumber.sol\":210:213  i++ */\n      dup1\n      dup1\n      0x01\n      add\n      swap2\n      pop\n      pop\n        /* \"contracts/8_PrimeNumber.sol\":186:287  for(int i = 2; i < num; i++){... */\n      jump(tag_12)\n    tag_13:\n      pop\n        /* \"contracts/8_PrimeNumber.sol\":304:308  true */\n      0x01\n        /* \"contracts/8_PrimeNumber.sol\":297:308  return true */\n      swap1\n      pop\n        /* \"contracts/8_PrimeNumber.sol\":85:316  function ifPrime(int num) public pure returns (bool) {... */\n    tag_10:\n      swap2\n      swap1\n      pop\n      jump\t// out\n        /* \"#utility.yul\":88:205   */\n    tag_19:\n        /* \"#utility.yul\":197:198   */\n      0x00\n        /* \"#utility.yul\":194:195   */\n      dup1\n        /* \"#utility.yul\":187:199   */\n      revert\n        /* \"#utility.yul\":334:410   */\n    tag_21:\n        /* \"#utility.yul\":370:377   */\n      0x00\n        /* \"#utility.yul\":399:404   */\n      dup2\n        /* \"#utility.yul\":388:404   */\n      swap1\n      pop\n        /* \"#utility.yul\":334:410   */\n      swap2\n      swap1\n      pop\n      jump\t// out\n        /* \"#utility.yul\":416:536   */\n    tag_22:\n        /* \"#utility.yul\":488:511   */\n      tag_33\n        /* \"#utility.yul\":505:510   */\n      dup2\n        /* \"#utility.yul\":488:511   */\n      tag_21\n      jump\t// in\n    tag_33:\n        /* \"#utility.yul\":481:486   */\n      dup2\n        /* \"#utility.yul\":478:512   */\n      eq\n        /* \"#utility.yul\":468:530   */\n      tag_34\n      jumpi\n        /* \"#utility.yul\":526:527   */\n      0x00\n        /* \"#utility.yul\":523:524   */\n      dup1\n        /* \"#utility.yul\":516:528   */\n      revert\n        /* \"#utility.yul\":468:530   */\n    tag_34:\n        /* \"#utility.yul\":416:536   */\n      pop\n      jump\t// out\n        /* \"#utility.yul\":542:679   */\n    tag_23:\n        /* \"#utility.yul\":587:592   */\n      0x00\n        /* \"#utility.yul\":625:631   */\n      dup2\n        /* \"#utility.yul\":612:632   */\n      calldataload\n        /* \"#utility.yul\":603:632   */\n      swap1\n      pop\n        /* \"#utility.yul\":641:673   */\n      tag_36\n        /* \"#utility.yul\":667:672   */\n      dup2\n        /* \"#utility.yul\":641:673   */\n      tag_22\n      jump\t// in\n    tag_36:\n        /* \"#utility.yul\":542:679   */\n      swap3\n      swap2\n      pop\n      pop\n      jump\t// out\n        /* \"#utility.yul\":685:1012   */\n    tag_6:\n        /* \"#utility.yul\":743:749   */\n      0x00\n        /* \"#utility.yul\":792:794   */\n      0x20\n        /* \"#utility.yul\":780:789   */\n      dup3\n        /* \"#utility.yul\":771:778   */\n      dup5\n        /* \"#utility.yul\":767:790   */\n      sub\n        /* \"#utility.yul\":763:795   */\n      slt\n        /* \"#utility.yul\":760:879   */\n      iszero\n      tag_38\n      jumpi\n        /* \"#utility.yul\":798:877   */\n      tag_39\n      tag_19\n      jump\t// in\n    tag_39:\n        /* \"#utility.yul\":760:879   */\n    tag_38:\n        /* \"#utility.yul\":918:919   */\n      0x00\n        /* \"#utility.yul\":943:995   */\n      tag_40\n        /* \"#utility.yul\":987:994   */\n      dup5\n        /* \"#utility.yul\":978:984   */\n      dup3\n        /* \"#utility.yul\":967:976   */\n      dup6\n        /* \"#utility.yul\":963:985   */\n      add\n        /* \"#utility.yul\":943:995   */\n      tag_23\n      jump\t// in\n    tag_40:\n        /* \"#utility.yul\":933:995   */\n      swap2\n      pop\n        /* \"#utility.yul\":889:1005   */\n      pop\n        /* \"#utility.yul\":685:1012   */\n      swap3\n      swap2\n      pop\n      pop\n      jump\t// out\n        /* \"#utility.yul\":1018:1108   */\n    tag_24:\n        /* \"#utility.yul\":1052:1059   */\n      0x00\n        /* \"#utility.yul\":1095:1100   */\n      dup2\n        /* \"#utility.yul\":1088:1101   */\n      iszero\n        /* \"#utility.yul\":1081:1102   */\n      iszero\n        /* \"#utility.yul\":1070:1102   */\n      swap1\n      pop\n        /* \"#utility.yul\":1018:1108   */\n      swap2\n      swap1\n      pop\n      jump\t// out\n        /* \"#utility.yul\":1114:1223   */\n    tag_25:\n        /* \"#utility.yul\":1195:1216   */\n      tag_43\n        /* \"#utility.yul\":1210:1215   */\n      dup2\n        /* \"#utility.yul\":1195:1216   */\n      tag_24\n      jump\t// in\n    tag_43:\n        /* \"#utility.yul\":1190:1193   */\n      dup3\n        /* \"#utility.yul\":1183:1217   */\n      mstore\n        /* \"#utility.yul\":1114:1223   */\n      pop\n      pop\n      jump\t// out\n        /* \"#utility.yul\":1229:1439   */\n    tag_9:\n        /* \"#utility.yul\":1316:1320   */\n      0x00\n        /* \"#utility.yul\":1354:1356   */\n      0x20\n        /* \"#utility.yul\":1343:1352   */\n      dup3\n        /* \"#utility.yul\":1339:1357   */\n      add\n        /* \"#utility.yul\":1331:1357   */\n      swap1\n      pop\n        /* \"#utility.yul\":1367:1432   */\n      tag_45\n        /* \"#utility.yul\":1429:1430   */\n      0x00\n        /* \"#utility.yul\":1418:1427   */\n      dup4\n        /* \"#utility.yul\":1414:1431   */\n      add\n        /* \"#utility.yul\":1405:1411   */\n      dup5\n        /* \"#utility.yul\":1367:1432   */\n      tag_25\n      jump\t// in\n    tag_45:\n        /* \"#utility.yul\":1229:1439   */\n      swap3\n      swap2\n      pop\n      pop\n      jump\t// out\n        /* \"#utility.yul\":1445:1625   */\n    tag_26:\n        /* \"#utility.yul\":1493:1570   */\n      0x4e487b7100000000000000000000000000000000000000000000000000000000\n        /* \"#utility.yul\":1490:1491   */\n      0x00\n        /* \"#utility.yul\":1483:1571   */\n      mstore\n        /* \"#utility.yul\":1590:1594   */\n      0x12\n        /* \"#utility.yul\":1587:1588   */\n      0x04\n        /* \"#utility.yul\":1580:1595   */\n      mstore\n        /* \"#utility.yul\":1614:1618   */\n      0x24\n        /* \"#utility.yul\":1611:1612   */\n      0x00\n        /* \"#utility.yul\":1604:1619   */\n      revert\n        /* \"#utility.yul\":1631:1805   */\n    tag_16:\n        /* \"#utility.yul\":1662:1663   */\n      0x00\n        /* \"#utility.yul\":1679:1698   */\n      tag_48\n        /* \"#utility.yul\":1696:1697   */\n      dup3\n        /* \"#utility.yul\":1679:1698   */\n      tag_21\n      jump\t// in\n    tag_48:\n        /* \"#utility.yul\":1674:1698   */\n      swap2\n      pop\n        /* \"#utility.yul\":1712:1731   */\n      tag_49\n        /* \"#utility.yul\":1729:1730   */\n      dup4\n        /* \"#utility.yul\":1712:1731   */\n      tag_21\n      jump\t// in\n    tag_49:\n        /* \"#utility.yul\":1707:1731   */\n      swap3\n      pop\n        /* \"#utility.yul\":1750:1751   */\n      dup3\n        /* \"#utility.yul\":1740:1775   */\n      tag_50\n      jumpi\n        /* \"#utility.yul\":1755:1773   */\n      tag_51\n      tag_26\n      jump\t// in\n    tag_51:\n        /* \"#utility.yul\":1740:1775   */\n    tag_50:\n        /* \"#utility.yul\":1797:1798   */\n      dup3\n        /* \"#utility.yul\":1794:1795   */\n      dup3\n        /* \"#utility.yul\":1789:1799   */\n      smod\n        /* \"#utility.yul\":1784:1799   */\n      swap1\n      pop\n        /* \"#utility.yul\":1631:1805   */\n      swap3\n      swap2\n      pop\n      pop\n      jump\t// out\n\n    auxdata: 0xa2646970667358221220e466040d7f24b9021f037053665fa268ebfd2ad3402c35ce98de462277b9a16164736f6c63430008190033\n}\n",
				"bytecode": {
					"linkReferences": {},
					"object": "6080604052348015600e575f80fd5b506101d78061001c5f395ff3fe608060405234801561000f575f80fd5b5060043610610029575f3560e01c806347b78e4a1461002d575b5f80fd5b610047600480360381019061004291906100e6565b61005d565b604051610054919061012b565b60405180910390f35b5f6001820361006e575f90506100aa565b5f600290505b828112156100a4575f81846100899190610171565b03610097575f9150506100aa565b8080600101915050610074565b50600190505b919050565b5f80fd5b5f819050919050565b6100c5816100b3565b81146100cf575f80fd5b50565b5f813590506100e0816100bc565b92915050565b5f602082840312156100fb576100fa6100af565b5b5f610108848285016100d2565b91505092915050565b5f8115159050919050565b61012581610111565b82525050565b5f60208201905061013e5f83018461011c565b92915050565b7f4e487b71000000000000000000000000000000000000000000000000000000005f52601260045260245ffd5b5f61017b826100b3565b9150610186836100b3565b92508261019657610195610144565b5b82820790509291505056fea2646970667358221220e466040d7f24b9021f037053665fa268ebfd2ad3402c35ce98de462277b9a16164736f6c63430008190033",
					"opcodes": "PUSH1 0x80 PUSH1 0x40 MSTORE CALLVALUE DUP1 ISZERO PUSH1 0xE JUMPI PUSH0 DUP1 REVERT JUMPDEST POP PUSH2 0x1D7 DUP1 PUSH2 0x1C PUSH0 CODECOPY PUSH0 RETURN INVALID PUSH1 0x80 PUSH1 0x40 MSTORE CALLVALUE DUP1 ISZERO PUSH2 0xF JUMPI PUSH0 DUP1 REVERT JUMPDEST POP PUSH1 0x4 CALLDATASIZE LT PUSH2 0x29 JUMPI PUSH0 CALLDATALOAD PUSH1 0xE0 SHR DUP1 PUSH4 0x47B78E4A EQ PUSH2 0x2D JUMPI JUMPDEST PUSH0 DUP1 REVERT JUMPDEST PUSH2 0x47 PUSH1 0x4 DUP1 CALLDATASIZE SUB DUP2 ADD SWAP1 PUSH2 0x42 SWAP2 SWAP1 PUSH2 0xE6 JUMP JUMPDEST PUSH2 0x5D JUMP JUMPDEST PUSH1 0x40 MLOAD PUSH2 0x54 SWAP2 SWAP1 PUSH2 0x12B JUMP JUMPDEST PUSH1 0x40 MLOAD DUP1 SWAP2 SUB SWAP1 RETURN JUMPDEST PUSH0 PUSH1 0x1 DUP3 SUB PUSH2 0x6E JUMPI PUSH0 SWAP1 POP PUSH2 0xAA JUMP JUMPDEST PUSH0 PUSH1 0x2 SWAP1 POP JUMPDEST DUP3 DUP2 SLT ISZERO PUSH2 0xA4 JUMPI PUSH0 DUP2 DUP5 PUSH2 0x89 SWAP2 SWAP1 PUSH2 0x171 JUMP JUMPDEST SUB PUSH2 0x97 JUMPI PUSH0 SWAP2 POP POP PUSH2 0xAA JUMP JUMPDEST DUP1 DUP1 PUSH1 0x1 ADD SWAP2 POP POP PUSH2 0x74 JUMP JUMPDEST POP PUSH1 0x1 SWAP1 POP JUMPDEST SWAP2 SWAP1 POP JUMP JUMPDEST PUSH0 DUP1 REVERT JUMPDEST PUSH0 DUP2 SWAP1 POP SWAP2 SWAP1 POP JUMP JUMPDEST PUSH2 0xC5 DUP2 PUSH2 0xB3 JUMP JUMPDEST DUP2 EQ PUSH2 0xCF JUMPI PUSH0 DUP1 REVERT JUMPDEST POP JUMP JUMPDEST PUSH0 DUP2 CALLDATALOAD SWAP1 POP PUSH2 0xE0 DUP2 PUSH2 0xBC JUMP JUMPDEST SWAP3 SWAP2 POP POP JUMP JUMPDEST PUSH0 PUSH1 0x20 DUP3 DUP5 SUB SLT ISZERO PUSH2 0xFB JUMPI PUSH2 0xFA PUSH2 0xAF JUMP JUMPDEST JUMPDEST PUSH0 PUSH2 0x108 DUP5 DUP3 DUP6 ADD PUSH2 0xD2 JUMP JUMPDEST SWAP2 POP POP SWAP3 SWAP2 POP POP JUMP JUMPDEST PUSH0 DUP2 ISZERO ISZERO SWAP1 POP SWAP2 SWAP1 POP JUMP JUMPDEST PUSH2 0x125 DUP2 PUSH2 0x111 JUMP JUMPDEST DUP3 MSTORE POP POP JUMP JUMPDEST PUSH0 PUSH1 0x20 DUP3 ADD SWAP1 POP PUSH2 0x13E PUSH0 DUP4 ADD DUP5 PUSH2 0x11C JUMP JUMPDEST SWAP3 SWAP2 POP POP JUMP JUMPDEST PUSH32 0x4E487B7100000000000000000000000000000000000000000000000000000000 PUSH0 MSTORE PUSH1 0x12 PUSH1 0x4 MSTORE PUSH1 0x24 PUSH0 REVERT JUMPDEST PUSH0 PUSH2 0x17B DUP3 PUSH2 0xB3 JUMP JUMPDEST SWAP2 POP PUSH2 0x186 DUP4 PUSH2 0xB3 JUMP JUMPDEST SWAP3 POP DUP3 PUSH2 0x196 JUMPI PUSH2 0x195 PUSH2 0x144 JUMP JUMPDEST JUMPDEST DUP3 DUP3 SMOD SWAP1 POP SWAP3 SWAP2 POP POP JUMP INVALID LOG2 PUSH5 0x6970667358 0x22 SLT KECCAK256 0xE4 PUSH7 0x40D7F24B9021F SUB PUSH17 0x53665FA268EBFD2AD3402C35CE98DE4622 PUSH24 0xB9A16164736F6C6343000819003300000000000000000000 "
				},
				"gasEstimates": {
					"creation": {
						"codeDepositCost": "94200",
						"executionCost": "139",
						"totalCost": "94339"
					},
					"external": {
						"ifPrime(int256)": "infinite"
					}
				},
				"methodIdentifiers": {
					"ifPrime(int256)": "47b78e4a"
				}
			},
			"storageLayout": {
				"storage": [],
				"types": null
			},
			"userdoc": {
				"kind": "user",
				"methods": {},
				"version": 1
			}
		}
	}
}