{
	"data": {
		"bytecode": {
			"linkReferences": {},
			"object": "6080604052348015600e575f80fd5b506103ee8061001c5f395ff3fe608060405234801561000f575f80fd5b506004361061004a575f3560e01c8063435091381461004e578063a5f3c23b1461007e578063adefc37b146100ae578063bbe93d91146100de575b5f80fd5b61006860048036038101906100639190610199565b61010e565b60405161007591906101e6565b60405180910390f35b61009860048036038101906100939190610199565b610123565b6040516100a591906101e6565b60405180910390f35b6100c860048036038101906100c39190610199565b610138565b6040516100d591906101e6565b60405180910390f35b6100f860048036038101906100f39190610199565b61014d565b60405161010591906101e6565b60405180910390f35b5f818361011b9190610259565b905092915050565b5f818361013091906102c1565b905092915050565b5f81836101459190610302565b905092915050565b5f818361015a9190610342565b905092915050565b5f80fd5b5f819050919050565b61017881610166565b8114610182575f80fd5b50565b5f813590506101938161016f565b92915050565b5f80604083850312156101af576101ae610162565b5b5f6101bc85828601610185565b92505060206101cd85828601610185565b9150509250929050565b6101e081610166565b82525050565b5f6020820190506101f95f8301846101d7565b92915050565b7f4e487b71000000000000000000000000000000000000000000000000000000005f52601260045260245ffd5b7f4e487b71000000000000000000000000000000000000000000000000000000005f52601160045260245ffd5b5f61026382610166565b915061026e83610166565b92508261027e5761027d6101ff565b5b60015f0383147f8000000000000000000000000000000000000000000000000000000000000000831416156102b6576102b561022c565b5b828205905092915050565b5f6102cb82610166565b91506102d683610166565b92508282019050828112155f8312168382125f8412151617156102fc576102fb61022c565b5b92915050565b5f61030c82610166565b915061031783610166565b925082820390508181125f8412168282135f85121516171561033c5761033b61022c565b5b92915050565b5f61034c82610166565b915061035783610166565b925082820261036581610166565b91507f800000000000000000000000000000000000000000000000000000000000000084145f8412161561039c5761039b61022c565b5b82820584148315176103b1576103b061022c565b5b509291505056fea264697066735822122003f0364bbeb3318238f7fae43c99e316dd53a95967640bb86433d53a1b39b69064736f6c63430008190033",
			"opcodes": "PUSH1 0x80 PUSH1 0x40 MSTORE CALLVALUE DUP1 ISZERO PUSH1 0xE JUMPI PUSH0 DUP1 REVERT JUMPDEST POP PUSH2 0x3EE DUP1 PUSH2 0x1C PUSH0 CODECOPY PUSH0 RETURN INVALID PUSH1 0x80 PUSH1 0x40 MSTORE CALLVALUE DUP1 ISZERO PUSH2 0xF JUMPI PUSH0 DUP1 REVERT JUMPDEST POP PUSH1 0x4 CALLDATASIZE LT PUSH2 0x4A JUMPI PUSH0 CALLDATALOAD PUSH1 0xE0 SHR DUP1 PUSH4 0x43509138 EQ PUSH2 0x4E JUMPI DUP1 PUSH4 0xA5F3C23B EQ PUSH2 0x7E JUMPI DUP1 PUSH4 0xADEFC37B EQ PUSH2 0xAE JUMPI DUP1 PUSH4 0xBBE93D91 EQ PUSH2 0xDE JUMPI JUMPDEST PUSH0 DUP1 REVERT JUMPDEST PUSH2 0x68 PUSH1 0x4 DUP1 CALLDATASIZE SUB DUP2 ADD SWAP1 PUSH2 0x63 SWAP2 SWAP1 PUSH2 0x199 JUMP JUMPDEST PUSH2 0x10E JUMP JUMPDEST PUSH1 0x40 MLOAD PUSH2 0x75 SWAP2 SWAP1 PUSH2 0x1E6 JUMP JUMPDEST PUSH1 0x40 MLOAD DUP1 SWAP2 SUB SWAP1 RETURN JUMPDEST PUSH2 0x98 PUSH1 0x4 DUP1 CALLDATASIZE SUB DUP2 ADD SWAP1 PUSH2 0x93 SWAP2 SWAP1 PUSH2 0x199 JUMP JUMPDEST PUSH2 0x123 JUMP JUMPDEST PUSH1 0x40 MLOAD PUSH2 0xA5 SWAP2 SWAP1 PUSH2 0x1E6 JUMP JUMPDEST PUSH1 0x40 MLOAD DUP1 SWAP2 SUB SWAP1 RETURN JUMPDEST PUSH2 0xC8 PUSH1 0x4 DUP1 CALLDATASIZE SUB DUP2 ADD SWAP1 PUSH2 0xC3 SWAP2 SWAP1 PUSH2 0x199 JUMP JUMPDEST PUSH2 0x138 JUMP JUMPDEST PUSH1 0x40 MLOAD PUSH2 0xD5 SWAP2 SWAP1 PUSH2 0x1E6 JUMP JUMPDEST PUSH1 0x40 MLOAD DUP1 SWAP2 SUB SWAP1 RETURN JUMPDEST PUSH2 0xF8 PUSH1 0x4 DUP1 CALLDATASIZE SUB DUP2 ADD SWAP1 PUSH2 0xF3 SWAP2 SWAP1 PUSH2 0x199 JUMP JUMPDEST PUSH2 0x14D JUMP JUMPDEST PUSH1 0x40 MLOAD PUSH2 0x105 SWAP2 SWAP1 PUSH2 0x1E6 JUMP JUMPDEST PUSH1 0x40 MLOAD DUP1 SWAP2 SUB SWAP1 RETURN JUMPDEST PUSH0 DUP2 DUP4 PUSH2 0x11B SWAP2 SWAP1 PUSH2 0x259 JUMP JUMPDEST SWAP1 POP SWAP3 SWAP2 POP POP JUMP JUMPDEST PUSH0 DUP2 DUP4 PUSH2 0x130 SWAP2 SWAP1 PUSH2 0x2C1 JUMP JUMPDEST SWAP1 POP SWAP3 SWAP2 POP POP JUMP JUMPDEST PUSH0 DUP2 DUP4 PUSH2 0x145 SWAP2 SWAP1 PUSH2 0x302 JUMP JUMPDEST SWAP1 POP SWAP3 SWAP2 POP POP JUMP JUMPDEST PUSH0 DUP2 DUP4 PUSH2 0x15A SWAP2 SWAP1 PUSH2 0x342 JUMP JUMPDEST SWAP1 POP SWAP3 SWAP2 POP POP JUMP JUMPDEST PUSH0 DUP1 REVERT JUMPDEST PUSH0 DUP2 SWAP1 POP SWAP2 SWAP1 POP JUMP JUMPDEST PUSH2 0x178 DUP2 PUSH2 0x166 JUMP JUMPDEST DUP2 EQ PUSH2 0x182 JUMPI PUSH0 DUP1 REVERT JUMPDEST POP JUMP JUMPDEST PUSH0 DUP2 CALLDATALOAD SWAP1 POP PUSH2 0x193 DUP2 PUSH2 0x16F JUMP JUMPDEST SWAP3 SWAP2 POP POP JUMP JUMPDEST PUSH0 DUP1 PUSH1 0x40 DUP4 DUP6 SUB SLT ISZERO PUSH2 0x1AF JUMPI PUSH2 0x1AE PUSH2 0x162 JUMP JUMPDEST JUMPDEST PUSH0 PUSH2 0x1BC DUP6 DUP3 DUP7 ADD PUSH2 0x185 JUMP JUMPDEST SWAP3 POP POP PUSH1 0x20 PUSH2 0x1CD DUP6 DUP3 DUP7 ADD PUSH2 0x185 JUMP JUMPDEST SWAP2 POP POP SWAP3 POP SWAP3 SWAP1 POP JUMP JUMPDEST PUSH2 0x1E0 DUP2 PUSH2 0x166 JUMP JUMPDEST DUP3 MSTORE POP POP JUMP JUMPDEST PUSH0 PUSH1 0x20 DUP3 ADD SWAP1 POP PUSH2 0x1F9 PUSH0 DUP4 ADD DUP5 PUSH2 0x1D7 JUMP JUMPDEST SWAP3 SWAP2 POP POP JUMP JUMPDEST PUSH32 0x4E487B7100000000000000000000000000000000000000000000000000000000 PUSH0 MSTORE PUSH1 0x12 PUSH1 0x4 MSTORE PUSH1 0x24 PUSH0 REVERT JUMPDEST PUSH32 0x4E487B7100000000000000000000000000000000000000000000000000000000 PUSH0 MSTORE PUSH1 0x11 PUSH1 0x4 MSTORE PUSH1 0x24 PUSH0 REVERT JUMPDEST PUSH0 PUSH2 0x263 DUP3 PUSH2 0x166 JUMP JUMPDEST SWAP2 POP PUSH2 0x26E DUP4 PUSH2 0x166 JUMP JUMPDEST SWAP3 POP DUP3 PUSH2 0x27E JUMPI PUSH2 0x27D PUSH2 0x1FF JUMP JUMPDEST JUMPDEST PUSH1 0x1 PUSH0 SUB DUP4 EQ PUSH32 0x8000000000000000000000000000000000000000000000000000000000000000 DUP4 EQ AND ISZERO PUSH2 0x2B6 JUMPI PUSH2 0x2B5 PUSH2 0x22C JUMP JUMPDEST JUMPDEST DUP3 DUP3 SDIV SWAP1 POP SWAP3 SWAP2 POP POP JUMP JUMPDEST PUSH0 PUSH2 0x2CB DUP3 PUSH2 0x166 JUMP JUMPDEST SWAP2 POP PUSH2 0x2D6 DUP4 PUSH2 0x166 JUMP JUMPDEST SWAP3 POP DUP3 DUP3 ADD SWAP1 POP DUP3 DUP2 SLT ISZERO PUSH0 DUP4 SLT AND DUP4 DUP3 SLT PUSH0 DUP5 SLT ISZERO AND OR ISZERO PUSH2 0x2FC JUMPI PUSH2 0x2FB PUSH2 0x22C JUMP JUMPDEST JUMPDEST SWAP3 SWAP2 POP POP JUMP JUMPDEST PUSH0 PUSH2 0x30C DUP3 PUSH2 0x166 JUMP JUMPDEST SWAP2 POP PUSH2 0x317 DUP4 PUSH2 0x166 JUMP JUMPDEST SWAP3 POP DUP3 DUP3 SUB SWAP1 POP DUP2 DUP2 SLT PUSH0 DUP5 SLT AND DUP3 DUP3 SGT PUSH0 DUP6 SLT ISZERO AND OR ISZERO PUSH2 0x33C JUMPI PUSH2 0x33B PUSH2 0x22C JUMP JUMPDEST JUMPDEST SWAP3 SWAP2 POP POP JUMP JUMPDEST PUSH0 PUSH2 0x34C DUP3 PUSH2 0x166 JUMP JUMPDEST SWAP2 POP PUSH2 0x357 DUP4 PUSH2 0x166 JUMP JUMPDEST SWAP3 POP DUP3 DUP3 MUL PUSH2 0x365 DUP2 PUSH2 0x166 JUMP JUMPDEST SWAP2 POP PUSH32 0x8000000000000000000000000000000000000000000000000000000000000000 DUP5 EQ PUSH0 DUP5 SLT AND ISZERO PUSH2 0x39C JUMPI PUSH2 0x39B PUSH2 0x22C JUMP JUMPDEST JUMPDEST DUP3 DUP3 SDIV DUP5 EQ DUP4 ISZERO OR PUSH2 0x3B1 JUMPI PUSH2 0x3B0 PUSH2 0x22C JUMP JUMPDEST JUMPDEST POP SWAP3 SWAP2 POP POP JUMP INVALID LOG2 PUSH5 0x6970667358 0x22 SLT KECCAK256 SUB CREATE CALLDATASIZE 0x4B 0xBE 0xB3 BALANCE DUP3 CODESIZE 0xF7 STATICCALL 0xE4 EXTCODECOPY SWAP10 0xE3 AND 0xDD MSTORE8 0xA9 MSIZE PUSH8 0x640BB86433D53A1B CODECOPY 0xB6 SWAP1 PUSH5 0x736F6C6343 STOP ADDMOD NOT STOP CALLER "
		},
		"gasEstimates": {
			"creation": {
				"codeDepositCost": "201200",
				"executionCost": "243",
				"totalCost": "201443"
			},
			"external": {
				"add(int256,int256)": "infinite",
				"div(int256,int256)": "infinite",
				"mul(int256,int256)": "infinite",
				"sub(int256,int256)": "infinite"
			}
		},
		"methodIdentifiers": {
			"add(int256,int256)": "a5f3c23b",
			"div(int256,int256)": "43509138",
			"mul(int256,int256)": "bbe93d91",
			"sub(int256,int256)": "adefc37b"
		}
	},
	"abi": [
		{
			"inputs": [
				{
					"internalType": "int256",
					"name": "a",
					"type": "int256"
				},
				{
					"internalType": "int256",
					"name": "b",
					"type": "int256"
				}
			],
			"name": "add",
			"outputs": [
				{
					"internalType": "int256",
					"name": "",
					"type": "int256"
				}
			],
			"stateMutability": "pure",
			"type": "function"
		},
		{
			"inputs": [
				{
					"internalType": "int256",
					"name": "a",
					"type": "int256"
				},
				{
					"internalType": "int256",
					"name": "b",
					"type": "int256"
				}
			],
			"name": "div",
			"outputs": [
				{
					"internalType": "int256",
					"name": "",
					"type": "int256"
				}
			],
			"stateMutability": "pure",
			"type": "function"
		},
		{
			"inputs": [
				{
					"internalType": "int256",
					"name": "a",
					"type": "int256"
				},
				{
					"internalType": "int256",
					"name": "b",
					"type": "int256"
				}
			],
			"name": "mul",
			"outputs": [
				{
					"internalType": "int256",
					"name": "",
					"type": "int256"
				}
			],
			"stateMutability": "pure",
			"type": "function"
		},
		{
			"inputs": [
				{
					"internalType": "int256",
					"name": "a",
					"type": "int256"
				},
				{
					"internalType": "int256",
					"name": "b",
					"type": "int256"
				}
			],
			"name": "sub",
			"outputs": [
				{
					"internalType": "int256",
					"name": "",
					"type": "int256"
				}
			],
			"stateMutability": "pure",
			"type": "function"
		}
	]
}